:100000000C9462000C947F000C947F000C947F0091
:100010000C947F000C947F000C947F000C94D3010F
:100020000C947F000C947F000C947F000C947F0054
:100030000C947F000C947F000C947F000C947F0044
:100040000C942F020C947F000C947F000C947F0082
:100050000C947F000C947F000C947F000C947F0024
:100060000C947F000C947F00000000002300260009
:10007000290000000000240027002A0000000008DA
:10008000000201000003040700000000000000005F
:10009000010204081020408001020408102001021F
:1000A0000408102000000000250028002B00040494
:1000B0000404040404040202020202020303030310
:1000C0000303020011241FBECFEFD8E0DEBFCDBF77
:1000D00011E0A0E0B1E0E8EDFFE002C005900D9274
:1000E000A031B107D9F721E0A0E1B1E001C01D9234
:1000F000A833B207E1F70E9479020C94EA070C9446
:100100000000833081F028F4813099F08230A9F02A
:1001100008958730A9F08830C9F08430B1F4809117
:1001200080008F7D03C0809180008F778093800056
:10013000089584B58F7784BD089584B58F7DFBCFF6
:100140008091B0008F778093B00008958091B000C7
:100150008F7DF9CF1F93CF93DF93282F30E0F901E4
:10016000E458FF4F8491F901E057FF4FD491F90112
:10017000E255FF4FC491CC23A9F0162F81110E94A4
:100180008100EC2FF0E0EE0FFF1FEC55FF4FA59123
:10019000B4918FB7F894EC91111108C0D095DE237B
:1001A000DC938FBFDF91CF911F910895DE2BF8CFA5
:1001B0009091020189130BC0E2ECF0E0E4919FEF13
:1001C00090930201E13049F028F0E23061F060E004
:1001D0000C94AA0010926E00FACF90916F009D7F50
:1001E00090936F00F4CF909170009D7F909370007A
:1001F00091E09093B0009091B100987F94609093BB
:10020000B1001092B300E3CFCF93DF9390E0FC01F5
:10021000E057FF4F249182559F4FFC018491882322
:10022000D1F090E0880F991FFC01EE58FF4FA59187
:10023000B491FC01EC55FF4FC591D491623071F43B
:100240009FB7F8943C91822F809583238C93E8810B
:100250002E2B28839FBFDF91CF9108958FB7F894FD
:10026000EC912E2B2C938FBFF6CFDC0130E020E0F9
:1002700061E070E04BE95FE095B1907F95B9ED9159
:10028000FD91EA5FFE4F80818BB995B1FB01022E93
:1002900001C0EE0F0A94EAF79E2B95B9FA01319747
:1002A000F1F72F5F3F4F2430310531F708950F9359
:1002B0001F932FB7F8948091190190911A01A09182
:1002C0001B01B0911C012FBF4091100150911101F1
:1002D00060911201709113018C019D01041B150B9B
:1002E000260B370BB901A80140365A4E610571053E
:1002F000A0F08093100190931101A0931201B0938C
:100300001301809130019091310101968C33910558
:100310003CF490933101809330011F910F91089527
:100320001092310110923001809134019091350189
:100330000196883191052CF4909335018093340116
:10034000ECCF1092350110923401E7CFCF93DF93B9
:100350009C01FC01E458FF4F8491F901E057FF4FE5
:10036000D491F901E255FF4FC491CC23C9F081111A
:100370000E948100EC2FF0E0EE0FFF1FE859FF4FC5
:10038000A591B491EC91ED2331E020E009F430E047
:10039000832F922F21E082278170DF91CF910895E2
:1003A00090E080E0F7CF1F920F920FB60F921124CA
:1003B0002F933F934F935F936F937F938F939F936D
:1003C000AF93BF93EF93FF9380912201909123010C
:1003D000A0912401B0912501892B8A2B8B2BD1F17F
:1003E00090911D01E0911E01F0911F0180818927EC
:1003F00080838091220190912301A0912401B091EA
:100400002501181619061A061B069CF48091220174
:1004100090912301A0912401B09125010197A10998
:10042000B1098093220190932301A0932401B093FA
:100430002501FF91EF91BF91AF919F918F917F9196
:100440006F915F914F913F912F910F900FBE0F9041
:100450001F901895809102010E94D800EACF1F9248
:100460000F920FB60F9211242F933F938F939F9368
:10047000AF93BF938091190190911A01A0911B0134
:10048000B0911C013091180123E0230F2D3758F54E
:100490000196A11DB11D209318018093190190931D
:1004A0001A01A0931B01B0931C018091140190913B
:1004B0001501A0911601B09117010196A11DB11D62
:1004C0008093140190931501A0931601B093170126
:1004D000BF91AF919F918F913F912F910F900FBE40
:1004E0000F901F90189526E8230F0296A11DB11DAD
:1004F000D2CFCF93DF93CDB7DEB760970FB6F89426
:10050000DEBF0FBECDBF789484B5826084BD84B554
:10051000816084BD85B5826085BD85B5816085BDFE
:1005200080916E00816080936E00109281008091B6
:10053000810082608093810080918100816080933E
:100540008100809180008160809380008091B10063
:1005500084608093B1008091B00081608093B0008E
:1005600080917A00846080937A0080917A00826022
:1005700080937A0080917A00816080937A008091E4
:100580007A00806880937A001092C10062E081E175
:100590000E94040162E080E10E94040162E08FE0B9
:1005A0000E9404018FE184B98FEF8AB9CE010196D0
:1005B0006C015AE0E52EF12C6BE3262E312C809154
:1005C0003601909137018230910509F4BFC1833023
:1005D000910569F1019709F07CC281E190E00E94E8
:1005E000A601882309F41AC181E190E00E94A601C6
:1005F000E0913001F09131012091340130913501C9
:10060000882309F403C1C901B7010E94BB077A839B
:1006100069839C838B83CF01B7010E94BB077E83D4
:100620006D8398878F83C6010E943501DDCF86E0F8
:10063000D6011D928A95E9F7A0900001B0900101C2
:10064000B886AF8281E190E00E94A601811106C0C8
:1006500080E190E00E94A6018823B9F081E190E05A
:100660000E94A601811121C080E190E00E94A601B4
:1006700081111BC081E090E0AA94AB2811F482E0C4
:1006800090E090930101809300018FE090E00E9440
:10069000A6018823B1F08FE090E00E94A601882394
:1006A00041F0C6010E943501F6CFC6010E94350116
:1006B000D5CF8091000190910101909337018093F3
:1006C0003601C6010E9435018091360190913701B3
:1006D000019711F00E9457012091340130913501AA
:1006E00080913201909133012817390709F059C3DD
:1006F000209130013091310180912E0190912F0194
:100700002817390709F04DC380910501811149C3AC
:1007100081E190E00E94A601882349F081E190E008
:100720000E94A6018111FACF81E08093050180909B
:1007300003019090040180910201E2ECF0E0873027
:1007400009F011C2149117FD81C361E087E00E9496
:100750000401112319F0123009F0D0C2B12CA12CE0
:1007600060E072E18AE790E0A50194010E946B07C6
:1007700029013A01DA01C9010197A109B1098F3FA5
:100780009105A105B10509F00CF49CC260E472E486
:100790008FE090E0A50194010E946B072150310980
:1007A00041095109123009F04EC282E02F3F310554
:1007B0004105510509F00CF43AC360E970ED83E09E
:1007C00090E0A50194010E946B0721503109410975
:1007D000510983E02F3F31054105510509F00CF423
:1007E00026C368E478EE81E090E0A50194010E94C0
:1007F0006B0721503109410951092F3F310541054E
:10080000510511F00CF03DC284E011C33196EC3378
:10081000F10564F5F0933101E093300180E190E05F
:100820000E94A6018823E1F180E190E00E94A601E8
:10083000E0913001F0913101209134013091350186
:10084000882339F1C901B7010E94BB077A83698304
:100850009C838B83CF01B7010E94BB077E836D838E
:1008600098878F83C6010E943501DECF1092310137
:10087000109230012F5F3F4F283131052CF4309317
:10088000350120933401CACF109235011092340102
:10089000C5CF3197F7FD2BC0F0933101E0933001C4
:1008A0008FE090E00E94A6018823C9F18FE090E0DC
:1008B0000E94A6012091320130913301882359F121
:1008C000C901B7010E94BB077A8369839C838B832C
:1008D00080912E0190912F01B7010E94BB077E836A
:1008E0006D8398878F83C6010E943501DFCF3092D8
:1008F0003101209230012150310937FD05C030937C
:10090000350120933401CCCF87E190E090933501FD
:1009100080933401C5CF1092370110923601809137
:10092000340190913501B7010E94BB077A83698336
:100930009C838B838091300190913101B7010E949B
:10094000BB077E836D8398878F83BBCE81E190E068
:100950000E94A601882351F181E190E00E94A60146
:10096000E0912E01F0912F0120913201309133015D
:100970008823A1F0C901B7010E94BB077A8369836C
:100980009C838B83CF01B7010E94BB077E836D835D
:1009900098878F83C6010E943501DECF3196EC33F4
:1009A000F10564F5F0932F01E0932E0180E190E0D2
:1009B0000E94A6018823E1F180E190E00E94A60157
:1009C000E0912E01F0912F012091320130913301FD
:1009D000882339F1C901B7010E94BB077A83698373
:1009E0009C838B83CF01B7010E94BB077E836D83FD
:1009F00098878F83C6010E943501DECF10922F01A8
:100A000010922E012F5F3F4F283131052CF4309387
:100A1000330120933201CACF109233011092320178
:100A2000C5CF3197F7FD2DC0F0932F01E0932E0134
:100A30008FE090E00E94A6018823D9F18FE090E03A
:100A40000E94A601482F8091320190913301B70195
:100A50000E94BB07FB019C0180912E0190912F0108
:100A6000B7010E94BB07442301F1FA83E9833C8369
:100A70002B837E836D8398878F83C6010E94350107
:100A8000DDCF30922F0120922E012150310937FD08
:100A900005C03093330120933201CACF87E190E043
:100AA0009093330180933201C3CF1092370110929B
:100AB00036018091320190913301B7010E94BB074A
:100AC0007A8369839C838B8380912E0190912F017F
:100AD00035CF8091340190913501B7010E94BB0759
:100AE0007A8769879C878B8780913001909131014B
:100AF000B7010E94BB077E876D87988B8F87CE01D9
:100B000009960E9435018FE090E00E94A60188239B
:100B100009F4DACD8FE090E00E94A6018823E1F08D
:100B20000E9457018091340190913501B7010E94D4
:100B3000BB077A8369839C838B838091300190917A
:100B40003101B7010E94BB077E836D8398878F8335
:100B5000C6010E943501DECF83E090E0909337011B
:100B600080933601B1CD8F3F09F070C187E080934B
:100B7000020114911F3F09F469C1113021F150F0B5
:100B8000123009F43EC017FD61C161E087E00E94A8
:100B90000401E1CD14BC15BC84B5826084BD85B56B
:100BA000816085BDE5EBF0E0E491F0E0EE0FFF1F22
:100BB000EC55FF4F85919491E7E9F0E0E491E093E3
:100BC000210110E0C2CD109280001092810080912E
:100BD0008100886080938100809181008160809392
:100BE0008100E5EBF0E0E491F0E0EE0FFF1FEC5543
:100BF000FF4F85919491E7E9F0E0E491E0932001C3
:100C0000A4CD1092B0001092B1008091B00082602B
:100C10008093B0008091B10081608093B100E5EBDA
:100C2000F0E0E491F0E0EE0FFF1FEC55FF4F8591EF
:100C3000949190931F0180931E01E7E9F0E0E49105
:100C4000E0931D0182CD2F3F31054105510509F08B
:100C50000CF452C068E478EE81E090E0A5019401C4
:100C60000E946B072150310941095109112309F4F0
:100C7000B3C02F3F31054105510511F00CF0B4C050
:100C8000C3CD64E274EF80E090E0A50194010E947E
:100C90006B07215031094109510985E02F3F31058A
:100CA0004105510509F008F4C2C062E17AE780E02D
:100CB00090E0A50194010E946B0721503109410980
:100CC0005109A0C09C0181E01111B1C095B5987F78
:100CD000892B85BD27BD8FEF9FEFDC0180932A0113
:100CE00090932B01A0932C01B0932D0180916E0065
:100CF000826080936E00AAC082E0E6CFB12CA12C66
:100D000060E072E18AE790E0A50194010E946B0720
:100D1000215031094109510991E021153105E1E0E6
:100D20004E0751056CF068E478EE81E090E0A50193
:100D300094010E946B07215031094109510993E048
:100D4000113009F07AC080918100887F892B8093CF
:100D5000810030938900209388008FEF9FEFDC01A2
:100D60008093260190932701A0932801B093290135
:100D700080916F00826080936F0068C02093B30001
:100D80008FEF9FEFDC018093220190932301A093CA
:100D90002401B093250180917000826080937000DF
:100DA00055C087E00E94D80051C084E02F3F310534
:100DB0004105510509F008F489CF9AE075946794CC
:100DC000579447949A95D1F7A30192012150310984
:100DD0004109510985E07ACF83E02F3F3105410574
:100DE000510509F00CF472CF62E17AE780E090E0FF
:100DF000A50194010E946B07215031094109510955
:100E0000112399F286E02F3F31054105510579F014
:100E100070F08AE075946794579447948A95D1F757
:100E2000A3019201215031094109510987E09091B4
:100E3000B100987F892B8093B100113009F489CFDC
:100E4000123009F49BCF112309F444CF20913401CF
:100E50003091350180913201909133012817390783
:100E600059F4209130013091310180912E019091FF
:100E70002F012817390711F0109205016091050123
:100E80008CE00E94AA0080E480937C0080917A002C
:100E9000806480937A0080917A0086FDFCCF8091F7
:100EA0007800A0917900BA2FA82F20E23EE40E949A
:100EB000CF072FEF33E040E050E00E946B07309304
:100EC00004012093030180E090E0892B09F477CBA3
:100ED0000E9400006BCB052E97FB1EF400940E942D
:100EE000820757FD07D00E948A0707FC03D04EF403
:100EF0000C94820750954095309521953F4F4F4F68
:100F00005F4F089590958095709561957F4F8F4FB5
:100F10009F4F0895A1E21A2EAA1BBB1BFD010DC015
:100F2000AA1FBB1FEE1FFF1FA217B307E407F50799
:100F300020F0A21BB30BE40BF50B661F771F881F75
:100F4000991F1A9469F760957095809590959B010B
:100F5000AC01BD01CF010895A29FB001B39FC001B4
:100F6000A39F700D811D1124911DB29F700D811DD5
:100F70001124911D089597FB072E16F4009407D0B5
:100F800077FD09D00E94D60707FC05D03EF4909566
:100F900081959F4F0895709561957F4F08950E94A8
:100FA000AC07B7FF0895821B930B0895AA1BBB1BC8
:100FB00051E107C0AA1FBB1FA617B70710F0A61B59
:100FC000B70B881F991F5A95A9F780959095BC017A
:080FD000CD010895F894FFCF54
:100FD8000100FF6400013F065B4F666D7D077F6F70
:00000001FF
