:100000000C9462000C947F000C947F000C947F0091
:100010000C947F000C947F000C947F000C94CF0113
:100020000C947F000C947F000C947F000C947F0054
:100030000C947F000C947F000C947F000C947F0044
:100040000C942B020C947F000C947F000C947F0086
:100050000C947F000C947F000C947F000C947F0024
:100060000C947F000C947F00000000002400270007
:100070002A000000000023002600290000000008DC
:10008000000201000003040700000000000000005F
:10009000010204081020408001020408102001021F
:1000A0000408102000000000250028002B00040494
:1000B0000404040404040202020202020303030310
:1000C0000303020011241FBECFEFD8E0DEBFCDBF77
:1000D00011E0A0E0B1E0E4EAFFE002C005900D927B
:1000E000A031B107D9F721E0A0E1B1E001C01D9234
:1000F000AE33B207E1F70E9475020C94D0070C945E
:100100000000833081F028F4813099F08230A9F02A
:1001100008958730A9F08830C9F08430B1F4809117
:1001200080008F7D03C0809180008F778093800056
:10013000089584B58F7784BD089584B58F7DFBCFF6
:100140008091B0008F778093B00008958091B000C7
:100150008F7DF9CFCF93DF93282F30E0F901E4585A
:10016000FF4F8491F901E057FF4FD491F901E25517
:10017000FF4FC491CC23A1F081110E948100EC2F8C
:10018000F0E0EE0FFF1FEE58FF4FA591B491EC91F8
:10019000ED2381E090E009F480E0DF91CF910895B4
:1001A00080E090E0FACF1F93CF93DF93282F30E0C9
:1001B000F901E458FF4F8491F901E057FF4FD491C2
:1001C000F901E255FF4FC491CC23A9F0162F8111FC
:1001D0000E948100EC2FF0E0EE0FFF1FEC55FF4F67
:1001E000A591B4918FB7F894EC91111108C0D095F6
:1001F000DE23DC938FBFDF91CF911F910895DE2B1B
:10020000F8CF9091020189130BC0E2ECF0E0E49189
:100210009FEF90930201E13049F028F0E23061F065
:1002200060E00C94D30010926E00FACF90916F00B2
:100230009D7F90936F00F4CF909170009D7F90937D
:10024000700091E09093B0009091B100987F94601D
:100250009093B1001092B300E3CFCF93DF9390E07F
:10026000FC01E057FF4F249182559F4FFC01849180
:100270008823D1F090E0880F991FFC01E859FF4FC7
:10028000A591B491FC01EC55FF4FC591D49162301A
:1002900071F49FB7F8943C91822F809583238C93BF
:1002A000E8812E2B28839FBFDF91CF9108958FB7D0
:1002B000F894EC912E2B2C938FBFF6CFDC0130E01D
:1002C00020E061E070E04BE95FE095B1907F95B987
:1002D000ED91FD91EA5FFE4F80818BB995B1FB01F5
:1002E000022E01C0EE0F0A94EAF79E2B95B9FA018F
:1002F0003197F1F72F5F3F4F2430310531F70895E3
:100300000F931F932FB7F8948091190190911A01C0
:10031000A0911B01B0911C012FBF40911001509181
:10032000110160911201709113018C019D01041B58
:10033000150B260B370BB901A80140365A4E610543
:100340007105A0F08093100190931101A093120108
:10035000B0931301809133019091340101968C3355
:1003600091053CF490933401809333011F910F91D8
:1003700008951092340110923301809137019091C9
:1003800038010196883191052CF4909338018093BF
:100390003701ECCF1092380110923701E7CF1F924E
:1003A0000F920FB60F9211242F933F934F935F93A9
:1003B0006F937F938F939F93AF93BF93EF93FF932D
:1003C0008091220190912301A0912401B0912501F7
:1003D000892B8A2B8B2BD1F190911D01E0911E016D
:1003E000F0911F0180818927808380912201909163
:1003F0002301A0912401B0912501181619061A06AF
:100400001B069CF48091220190912301A09124016C
:10041000B09125010197A109B10980932201909320
:100420002301A0932401B0932501FF91EF91BF9187
:10043000AF919F918F917F916F915F914F913F917C
:100440002F910F900FBE0F901F9018958091020171
:100450000E940101EACF1F920F920FB60F92112452
:100460002F933F938F939F93AF93BF9380911901E5
:1004700090911A01A0911B01B0911C0130911801BB
:1004800023E0230F2D3758F50196A11DB11D2093B0
:1004900018018093190190931A01A0931B01B09346
:1004A0001C018091140190911501A0911601B09149
:1004B00017010196A11DB11D8093140190931501A0
:1004C000A0931601B0931701BF91AF919F918F91A7
:1004D0003F912F910F900FBE0F901F90189526E817
:1004E000230F0296A11DB11DD2CFCF93DF93CDB7BD
:1004F000DEB760970FB6F894DEBF0FBECDBF78941D
:1005000084B5826084BD84B5816084BD85B5826018
:1005100085BD85B5816085BD80916E0081608093C9
:100520006E00109281008091810082608093810032
:100530008091810081608093810080918000816042
:10054000809380008091B10084608093B10080919D
:10055000B00081608093B00080917A0084608093C5
:100560007A0080917A00826080937A0080917A008C
:10057000816080937A0080917A00806880937A000D
:100580001092C10062E081E10E942D0162E080E1F1
:100590000E942D0162E08FE00E942D018FE084B95E
:1005A0008FEF8AB9CE0101962C015AE0652E712C8D
:1005B0006BE3262E312C81E10E94AA006C0181E0C0
:1005C000C114D10409F480E080933D0180E10E94D0
:1005D000AA004C0181E08114910409F480E0809329
:1005E0003C018FE00E94AA007C0181E0E114F1044B
:1005F00009F480E080933B010091350110913601B0
:100600008091390190913A018230910509F496C1A7
:100610008330910509F491C0019709F039C2CD28C2
:1006200059F580913001882339F1C0903701D0907D
:100630003801A0903301B0903401C601B3010E948B
:10064000A1077A8369839C838B83C501B3010E94D0
:10065000A1077E836D8398878F83C2010E945E010C
:10066000BFEFAB1ABB0AECE3AE16B1040CF03CC111
:10067000B0923401A0923301892841F580912F0175
:10068000882321F1C0903701D0903801A090330128
:10069000B0903401C601B3010E94A1077A83698337
:1006A0009C838B83C501B3010E94A1077E836D8368
:1006B00098878F83C2010E945E0191E0A91AB10858
:1006C000B7FC27C1B0923401A0923301EF28F1F4B6
:1006D00080912E018823D1F0C801B3010E94A107A7
:1006E0007A8369839C838B8380913101909132015D
:1006F000B3010E94A1077E836D8398878F83C20117
:100700000E945E0110923A011092390180913701E6
:1007100090913801B3010E94A1077A8369839C8379
:100720008B838091330190913401B3010E94A10722
:100730007E836D8398878F8336C086E0D2011D92B9
:100740008A95E9F7009100011091010118870F8344
:10075000CD2821F480913001811106C0892891F4BF
:1007600080912F01882371F0C2010E945E0182E016
:1007700090E00130110511F081E090E090930101CB
:1007800080930001EF2879F480912E01882359F09D
:10079000C2010E945E01809100019091010190933D
:1007A0003A0180933901C2010E945E0180913901B2
:1007B00090913A01019711F00E9480012091370138
:1007C0003091380180913501909136012817390711
:1007D00009F0C1C22091330130913401809131017F
:1007E000909132012817390709F0B5C280910501AF
:1007F0008111B1C280913D01811107C0809130010A
:10080000882319F081E080930501C0900301D09006
:10081000040180910201E2ECF0E0873009F07CC134
:10082000149117FDEDC261E087E00E942D011123B4
:1008300019F0123009F03BC2F12CE12C60E072E1BA
:100840008AE790E0A70196010E94510749015A01E9
:10085000DA01C9010197A109B1098F3F9105A105ED
:10086000B10509F00CF407C260E472E48FE090E097
:10087000A70196010E9451072150310941095109F0
:10088000123009F0B9C182E02F3F31054105510511
:1008900009F00CF4A6C260E970ED83E090E0A701D6
:1008A00096010E945107215031094109510983E005
:1008B0002F3F31054105510509F00CF492C268E45F
:1008C00078EE81E090E0A70196010E945107215047
:1008D0003109410951092F3F31054105510511F0F9
:1008E0000CF0A8C184E07DC2109234011092330153
:1008F000FFEFCF1ADF0A88E1C816D1042CF4D0929A
:100900003801C0923701B8CE1092380110923701E9
:10091000B3CE3092340120923301A1E0CA1AD1083B
:10092000D7FC05C0D0923801C0923701CFCE87E105
:1009300090E09093380180933701C8CECD2839F5E7
:1009400080913001882319F1C0903101D09032019B
:10095000C801B3010E94A1077A8369839C838B83BA
:10096000C601B3010E94A1077E836D8398878F83A0
:10097000C2010E945E01BFEFCB1ADB0AECE3CE1688
:10098000D1040CF05EC0D0923201C09231018928AE
:1009900041F580912F01882321F1009135011091BB
:1009A0003601C0903101D0903201C801B3010E94DC
:1009B000A1077A8369839C838B83C601B3010E945C
:1009C000A1077E836D8398878F83C2010E945E0199
:1009D000F1E0CF1AD108D7FC47C0D0923201C092C3
:1009E00031018091350190913601B3010E94A10738
:1009F0004B015C018091310190913201B3010E9461
:100A0000A1076B018C01EF2899F480912E018823B6
:100A100079F09A828982BC82AB827E836D8318874B
:100A20000F83C2010E945E0110923A0110923901B7
:100A30009A828982BC82AB82DE82CD8218870F8344
:100A4000B2CE10923201109231010F5F1F4F083168
:100A500011052CF4109336010093350198CF1092B4
:100A600036011092350193CF30923201209231013C
:100A70000150110917FD05C010933601009335018F
:100A8000B0CF87E190E09093360180933501A9CFF4
:100A90008091370190913801B3010E94A1077A87B4
:100AA00069879C878B878091330190913401B301D2
:100AB0000E94A1077E876D87988B8F87CE0109964C
:100AC0000E945E01EF2809F071CE80912E018823EB
:100AD00009F46CCE0E948001809137019091380119
:100AE000B3010E94A1077A8369839C838B838091E1
:100AF000330190913401B3010E94A1077E836D837D
:100B000098878F83C2010E945E0183E090E09093FA
:100B10003A01809339014ACE8F3F09F071C187E0D5
:100B20008093020114911F3F09F46AC1113021F131
:100B300050F0123009F43EC017FD62C161E087E059
:100B40000E942D0176CE14BC15BC84B5826084BD94
:100B500085B5816085BDE5EBF0E0E491F0E0EE0F56
:100B6000FF1FEC55FF4F85919491E7E9F0E0E49188
:100B7000E093210110E057CE109280001092810086
:100B800080918100886080938100809181008160E4
:100B900080938100E5EBF0E0E491F0E0EE0FFF1FC1
:100BA000EC55FF4F85919491E7E9F0E0E491E093F3
:100BB000200139CE1092B0001092B1008091B000A7
:100BC00082608093B0008091B10081608093B10019
:100BD000E5EBF0E0E491F0E0EE0FFF1FEC55FF4F86
:100BE0008591949190931F0180931E01E7E9F0E0B5
:100BF000E491E0931D0117CE2F3F310541055105CA
:100C000009F00CF452C068E478EE81E090E0A701AE
:100C100096010E94510721503109410951091123C0
:100C200009F4B4C02F3F31054105510511F00CF016
:100C3000B5C058CE64E274EF80E090E0A701960161
:100C40000E945107215031094109510985E02F3F88
:100C500031054105510509F008F4C3C062E17AE7A6
:100C600080E090E0A70196010E94510721503109D0
:100C700041095109A1C09C0181E01111B2C095B593
:100C8000987F892B85BD27BD8FEF9FEFDC01809377
:100C90002A0190932B01A0932C01B0932D018091F8
:100CA0006E00826080936E00ABC082E0E6CFF12CD4
:100CB000E12C60E072E18AE790E0A70196010E94D2
:100CC000510721503109410951092115310591E0A0
:100CD00049075105FCF491E0113009F088C080917A
:100CE0008100887F892B8093810030938900209335
:100CF00088008FEF9FEFDC018093260190932701FE
:100D0000A0932801B093290180916F0082608093A5
:100D10006F0076C068E478EE81E090E0A70196016C
:100D20000E945107215031094109510993E0D4CF64
:100D30002093B3008FEF9FEFDC018093220190930B
:100D40002301A0932401B09325018091700082605B
:100D50008093700055C087E00E94010151C084E07B
:100D60002F3F31054105510509F008F488CF8AE08D
:100D7000B594A794979487948A95D1F7A501940187
:100D8000215031094109510985E079CF83E02F3F96
:100D900031054105510509F00CF471CF62E17AE7A4
:100DA00080E090E0A70196010E945107215031098F
:100DB00041095109112399F286E02F3F3105410580
:100DC000510579F070F09AE0B594A79497948794C0
:100DD0009A95D1F7A5019401215031094109510992
:100DE00087E09091B100987F892B8093B1001130FA
:100DF00009F47BCF123009F49BCF112309F443CFC0
:100E00002091370130913801809135019091360160
:100E10002817390759F4209133013091340180911A
:100E20003101909132012817390711F01092050114
:100E3000609105018CE00E94D30080E480937C00E7
:100E400080917A00806480937A0080917A0086FD98
:100E5000FCCF80917800A0917900BA2FA82F20E2D2
:100E60003EE40E94B5072FEF33E040E050E00E94DF
:100E70005107309304012093030180913D01809339
:100E8000300180913C0180932F0180913B01809340
:100E90002E0180E090E0892B09F48DCB0E940000A8
:100EA00081CB052E97FB1EF400940E94680757FD26
:100EB00007D00E94700707FC03D04EF40C9468071B
:100EC00050954095309521953F4F4F4F5F4F089576
:100ED00090958095709561957F4F8F4F9F4F0895A6
:100EE000A1E21A2EAA1BBB1BFD010DC0AA1FBB1F2E
:100EF000EE1FFF1FA217B307E407F50720F0A21BA0
:100F0000B30BE40BF50B661F771F881F991F1A940C
:100F100069F760957095809590959B01AC01BD0136
:100F2000CF010895A29FB001B39FC001A39F700D90
:100F3000811D1124911DB29F700D811D1124911DE1
:100F4000089597FB072E16F4009407D077FD09D07B
:100F50000E94BC0707FC05D03EF4909581959F4FF9
:100F60000895709561957F4F08950E949207B7FF8D
:100F70000895821B930B0895AA1BBB1B51E107C068
:100F8000AA1FBB1FA617B70710F0A61BB70B881F19
:100F9000991F5A95A9F780959095BC01CD010895A8
:040FA000F894FFCFF3
:100FA4000100FF6400013F065B4F666D7D077F6FA4
:00000001FF
